{
  "_format": "hh-sol-artifact-1",
  "contractName": "Foundation",
  "sourceName": "contracts/Foundation.sol",
  "abi": [
    {
      "inputs": [
        {
          "internalType": "address",
          "name": "_foundationOwnerAddress",
          "type": "address"
        },
        {
          "internalType": "address",
          "name": "_foundationCoOnwerAddress",
          "type": "address"
        }
      ],
      "stateMutability": "nonpayable",
      "type": "constructor"
    },
    {
      "inputs": [],
      "name": "approval",
      "outputs": [
        {
          "internalType": "uint256",
          "name": "",
          "type": "uint256"
        }
      ],
      "stateMutability": "view",
      "type": "function"
    },
    {
      "inputs": [],
      "name": "approvalRequirement",
      "outputs": [
        {
          "internalType": "uint256",
          "name": "",
          "type": "uint256"
        }
      ],
      "stateMutability": "view",
      "type": "function"
    },
    {
      "inputs": [
        {
          "internalType": "address",
          "name": "callerAddress",
          "type": "address"
        }
      ],
      "name": "approve",
      "outputs": [],
      "stateMutability": "nonpayable",
      "type": "function"
    },
    {
      "inputs": [],
      "name": "foundationCoOnwerAddress",
      "outputs": [
        {
          "internalType": "address",
          "name": "",
          "type": "address"
        }
      ],
      "stateMutability": "view",
      "type": "function"
    },
    {
      "inputs": [],
      "name": "foundationOwnerAddress",
      "outputs": [
        {
          "internalType": "address",
          "name": "",
          "type": "address"
        }
      ],
      "stateMutability": "view",
      "type": "function"
    },
    {
      "inputs": [],
      "name": "getApprovalState",
      "outputs": [
        {
          "components": [
            {
              "internalType": "address",
              "name": "contractAddress",
              "type": "address"
            },
            {
              "internalType": "bool",
              "name": "isRequestWithdrawal",
              "type": "bool"
            },
            {
              "internalType": "bool",
              "name": "kindlinkApproval",
              "type": "bool"
            },
            {
              "internalType": "bool",
              "name": "foundationOwnerApproval",
              "type": "bool"
            },
            {
              "internalType": "bool",
              "name": "foundationCoOwnerApproval",
              "type": "bool"
            }
          ],
          "internalType": "struct Foundation.ApprovalState",
          "name": "",
          "type": "tuple"
        }
      ],
      "stateMutability": "view",
      "type": "function"
    },
    {
      "inputs": [
        {
          "internalType": "address",
          "name": "",
          "type": "address"
        }
      ],
      "name": "hasApproved",
      "outputs": [
        {
          "internalType": "bool",
          "name": "",
          "type": "bool"
        }
      ],
      "stateMutability": "view",
      "type": "function"
    },
    {
      "inputs": [],
      "name": "isRequestWithdrawal",
      "outputs": [
        {
          "internalType": "bool",
          "name": "",
          "type": "bool"
        }
      ],
      "stateMutability": "view",
      "type": "function"
    },
    {
      "inputs": [],
      "name": "kindlinkAddress",
      "outputs": [
        {
          "internalType": "address",
          "name": "",
          "type": "address"
        }
      ],
      "stateMutability": "view",
      "type": "function"
    },
    {
      "inputs": [],
      "name": "requestWithdrawal",
      "outputs": [],
      "stateMutability": "nonpayable",
      "type": "function"
    },
    {
      "inputs": [],
      "name": "withdraw",
      "outputs": [],
      "stateMutability": "nonpayable",
      "type": "function"
    },
    {
      "stateMutability": "payable",
      "type": "receive"
    }
  ],
  "bytecode": "0x60806040526000600260146101000a81548160ff02191690831515021790555060036004553480156200003157600080fd5b506040516200138b3803806200138b833981810160405281019062000057919062000293565b336000806101000a81548173ffffffffffffffffffffffffffffffffffffffff021916908373ffffffffffffffffffffffffffffffffffffffff16021790555081600160006101000a81548173ffffffffffffffffffffffffffffffffffffffff021916908373ffffffffffffffffffffffffffffffffffffffff16021790555080600260006101000a81548173ffffffffffffffffffffffffffffffffffffffff021916908373ffffffffffffffffffffffffffffffffffffffff1602179055506000600360003373ffffffffffffffffffffffffffffffffffffffff1673ffffffffffffffffffffffffffffffffffffffff16815260200190815260200160002060006101000a81548160ff0219169083151502179055506000600360008473ffffffffffffffffffffffffffffffffffffffff1673ffffffffffffffffffffffffffffffffffffffff16815260200190815260200160002060006101000a81548160ff0219169083151502179055506000600360008373ffffffffffffffffffffffffffffffffffffffff1673ffffffffffffffffffffffffffffffffffffffff16815260200190815260200160002060006101000a81548160ff0219169083151502179055505050620002da565b600080fd5b600073ffffffffffffffffffffffffffffffffffffffff82169050919050565b60006200025b826200022e565b9050919050565b6200026d816200024e565b81146200027957600080fd5b50565b6000815190506200028d8162000262565b92915050565b60008060408385031215620002ad57620002ac62000229565b5b6000620002bd858286016200027c565b9250506020620002d0858286016200027c565b9150509250929050565b6110a180620002ea6000396000f3fe6080604052600436106100a05760003560e01c80634357446511610064578063435744651461016f578063c73992e41461019a578063ce242442146101d7578063daea85c514610202578063dbaf21451461022b578063e312c0d514610242576100a7565b806310eb92ca146100ac5780631d253f7a146100d75780633616751f1461010257806339788bc81461012d5780633ccfd60b14610158576100a7565b366100a757005b600080fd5b3480156100b857600080fd5b506100c161026d565b6040516100ce9190610b79565b60405180910390f35b3480156100e357600080fd5b506100ec610291565b6040516100f99190610b79565b60405180910390f35b34801561010e57600080fd5b506101176102b7565b6040516101249190610b79565b60405180910390f35b34801561013957600080fd5b506101426102dd565b60405161014f9190610bad565b60405180910390f35b34801561016457600080fd5b5061016d6102e3565b005b34801561017b57600080fd5b50610184610605565b6040516101919190610bad565b60405180910390f35b3480156101a657600080fd5b506101c160048036038101906101bc9190610bf9565b61060b565b6040516101ce9190610c41565b60405180910390f35b3480156101e357600080fd5b506101ec61062b565b6040516101f99190610ce2565b60405180910390f35b34801561020e57600080fd5b5061022960048036038101906102249190610bf9565b6107d5565b005b34801561023757600080fd5b50610240610a2b565b005b34801561024e57600080fd5b50610257610ad8565b6040516102649190610c41565b60405180910390f35b60008054906101000a900473ffffffffffffffffffffffffffffffffffffffff1681565b600160009054906101000a900473ffffffffffffffffffffffffffffffffffffffff1681565b600260009054906101000a900473ffffffffffffffffffffffffffffffffffffffff1681565b60055481565b600160009054906101000a900473ffffffffffffffffffffffffffffffffffffffff1673ffffffffffffffffffffffffffffffffffffffff163373ffffffffffffffffffffffffffffffffffffffff1614610373576040517f08c379a000000000000000000000000000000000000000000000000000000000815260040161036a90610d80565b60405180910390fd5b600454600554146103b9576040517f08c379a00000000000000000000000000000000000000000000000000000000081526004016103b090610e12565b60405180910390fd5b60004790506000600160009054906101000a900473ffffffffffffffffffffffffffffffffffffffff1673ffffffffffffffffffffffffffffffffffffffff168260405161040690610e63565b60006040518083038185875af1925050503d8060008114610443576040519150601f19603f3d011682016040523d82523d6000602084013e610448565b606091505b505090508061048c576040517f08c379a000000000000000000000000000000000000000000000000000000000815260040161048390610ec4565b60405180910390fd5b6000600360008060009054906101000a900473ffffffffffffffffffffffffffffffffffffffff1673ffffffffffffffffffffffffffffffffffffffff1673ffffffffffffffffffffffffffffffffffffffff16815260200190815260200160002060006101000a81548160ff021916908315150217905550600060036000600160009054906101000a900473ffffffffffffffffffffffffffffffffffffffff1673ffffffffffffffffffffffffffffffffffffffff1673ffffffffffffffffffffffffffffffffffffffff16815260200190815260200160002060006101000a81548160ff021916908315150217905550600060036000600260009054906101000a900473ffffffffffffffffffffffffffffffffffffffff1673ffffffffffffffffffffffffffffffffffffffff1673ffffffffffffffffffffffffffffffffffffffff16815260200190815260200160002060006101000a81548160ff02191690831515021790555060006005819055505050565b60045481565b60036020528060005260406000206000915054906101000a900460ff1681565b610633610aeb565b6040518060a001604052803073ffffffffffffffffffffffffffffffffffffffff168152602001600260149054906101000a900460ff1615158152602001600360008060009054906101000a900473ffffffffffffffffffffffffffffffffffffffff1673ffffffffffffffffffffffffffffffffffffffff1673ffffffffffffffffffffffffffffffffffffffff16815260200190815260200160002060009054906101000a900460ff161515815260200160036000600160009054906101000a900473ffffffffffffffffffffffffffffffffffffffff1673ffffffffffffffffffffffffffffffffffffffff1673ffffffffffffffffffffffffffffffffffffffff16815260200190815260200160002060009054906101000a900460ff161515815260200160036000600260009054906101000a900473ffffffffffffffffffffffffffffffffffffffff1673ffffffffffffffffffffffffffffffffffffffff1673ffffffffffffffffffffffffffffffffffffffff16815260200190815260200160002060009054906101000a900460ff161515815250905090565b600260149054906101000a900460ff16610824576040517f08c379a000000000000000000000000000000000000000000000000000000000815260040161081b90610f56565b60405180910390fd5b600360008273ffffffffffffffffffffffffffffffffffffffff1673ffffffffffffffffffffffffffffffffffffffff16815260200190815260200160002060009054906101000a900460ff16156108b1576040517f08c379a00000000000000000000000000000000000000000000000000000000081526004016108a890610fe8565b60405180910390fd5b60008054906101000a900473ffffffffffffffffffffffffffffffffffffffff1673ffffffffffffffffffffffffffffffffffffffff168173ffffffffffffffffffffffffffffffffffffffff1614806109585750600160009054906101000a900473ffffffffffffffffffffffffffffffffffffffff1673ffffffffffffffffffffffffffffffffffffffff168173ffffffffffffffffffffffffffffffffffffffff16145b806109b05750600260009054906101000a900473ffffffffffffffffffffffffffffffffffffffff1673ffffffffffffffffffffffffffffffffffffffff168173ffffffffffffffffffffffffffffffffffffffff16145b156109d0576001600560008282546109c89190611037565b925050819055505b6001600360003373ffffffffffffffffffffffffffffffffffffffff1673ffffffffffffffffffffffffffffffffffffffff16815260200190815260200160002060006101000a81548160ff02191690831515021790555050565b600160009054906101000a900473ffffffffffffffffffffffffffffffffffffffff1673ffffffffffffffffffffffffffffffffffffffff163373ffffffffffffffffffffffffffffffffffffffff1614610abb576040517f08c379a0000000000000000000000000000000000000000000000000000000008152600401610ab290610d80565b60405180910390fd5b6001600260146101000a81548160ff021916908315150217905550565b600260149054906101000a900460ff1681565b6040518060a00160405280600073ffffffffffffffffffffffffffffffffffffffff1681526020016000151581526020016000151581526020016000151581526020016000151581525090565b600073ffffffffffffffffffffffffffffffffffffffff82169050919050565b6000610b6382610b38565b9050919050565b610b7381610b58565b82525050565b6000602082019050610b8e6000830184610b6a565b92915050565b6000819050919050565b610ba781610b94565b82525050565b6000602082019050610bc26000830184610b9e565b92915050565b600080fd5b610bd681610b58565b8114610be157600080fd5b50565b600081359050610bf381610bcd565b92915050565b600060208284031215610c0f57610c0e610bc8565b5b6000610c1d84828501610be4565b91505092915050565b60008115159050919050565b610c3b81610c26565b82525050565b6000602082019050610c566000830184610c32565b92915050565b610c6581610b58565b82525050565b610c7481610c26565b82525050565b60a082016000820151610c906000850182610c5c565b506020820151610ca36020850182610c6b565b506040820151610cb66040850182610c6b565b506060820151610cc96060850182610c6b565b506080820151610cdc6080850182610c6b565b50505050565b600060a082019050610cf76000830184610c7a565b92915050565b600082825260208201905092915050565b7f46756e6374696f6e20776173206e6f742063616c6c656420627920646564696360008201527f61746564207769746864726177616c2061646472657373000000000000000000602082015250565b6000610d6a603783610cfd565b9150610d7582610d0e565b604082019050919050565b60006020820190508181036000830152610d9981610d5d565b9050919050565b7f596f7520686176656e2774206d65742074686520617070726f76616c2072657160008201527f756972656d656e74732079657400000000000000000000000000000000000000602082015250565b6000610dfc602d83610cfd565b9150610e0782610da0565b604082019050919050565b60006020820190508181036000830152610e2b81610def565b9050919050565b600081905092915050565b50565b6000610e4d600083610e32565b9150610e5882610e3d565b600082019050919050565b6000610e6e82610e40565b9150819050919050565b7f5769746864726177616c204661696c6564000000000000000000000000000000600082015250565b6000610eae601183610cfd565b9150610eb982610e78565b602082019050919050565b60006020820190508181036000830152610edd81610ea1565b9050919050565b7f4e6f207769746864726177616c207265717565737420617661696c61626c652060008201527f746f20626520617070726f766500000000000000000000000000000000000000602082015250565b6000610f40602d83610cfd565b9150610f4b82610ee4565b604082019050919050565b60006020820190508181036000830152610f6f81610f33565b9050919050565b7f596f7520616c726561647920617070726f76656420746865207769746864726160008201527f77616c0000000000000000000000000000000000000000000000000000000000602082015250565b6000610fd2602383610cfd565b9150610fdd82610f76565b604082019050919050565b6000602082019050818103600083015261100181610fc5565b9050919050565b7f4e487b7100000000000000000000000000000000000000000000000000000000600052601160045260246000fd5b600061104282610b94565b915061104d83610b94565b925082820190508082111561106557611064611008565b5b9291505056fea2646970667358221220c7f26e578c08fa7d550243835b2a596a5b74c7feb69047d4c0f4c5a18a95d1fd64736f6c63430008180033",
  "linkReferences": {},
  "deployedLinkReferences": {}
}